:020000000B28CB
:10000800DE00030E8312A0000A08A100D828831678
:10001800FF2390008301E528C420FF308B1783124B
:100028008F0083308E000C10101427107E20A8013A
:10003800A8010430831228020318242864001D280C
:100048008510A801A80164308312280203182E28FD
:10005800640027280511271C5A28A801A8010A307E
:100068008312280203183A286400332820308506B2
:100078002F280430A70620308506A801A8014C289F
:100088006400831229082802031C4C2805155A28E5
:10009800271D5028013051280030A500051C56287E
:1000A800013057280030250603194428051D3D282E
:1000B800A801A801043083122802031865286400E7
:1000C8005E288514A801A80183122808031D6E283C
:1000D80064006828A60183120518752864006F2833
:1000E80064008312051874281A30A60A2602031819
:1000F8001B286F28A401A301A401A7100518A714A1
:100108008312A801A80190286400C830831228022D
:10011800031C902827140800051C942801309528F2
:100128000030A200A71C9A2801309B280030220624
:10013800031988280230A40A2402031C8128A80174
:10014800A8010B3024020318BA28A801A8018312B9
:100158000518B1286400AB28640083120518B0287C
:10016800123028020318A30AA40AA528093023027A
:10017800031CC1280F30A90008000D30A900080091
:1001880083169F0107308312990019308316850062
:100198003030831205158514900083160C140B1744
:1001A8009501CF308100080085300C108E00FF309B
:1001B8008F00A80A21088A00200E8300DE0E5E0E3A
:0C01C8000900A701A801A901830110286B
:02400E005C0054
:00000001FF
